:100000000C94EF010C940C020C940C020C943C2107
:100010000C940C020C940C020C940C020C940C0228
:100020000C940C020C940C020C947B100C94371062
:100030000C94821B0C940C020C940C020C940C0279
:100040000C940C020C940C020C940C020C940C02F8
:100050000C940C020C9453110C940C020C940C0292
:100060000C940C020C940C020C940C020C940C02D8
:100070000C940C020C940C020C940C020C940C02C8
:100080000C940C020C940C020C940C020C940C02B8
:100090000C940C020C940C020C940C020C940C02A8
:1000A0000C940C020C940C020C940C0229001E00FF
:1000B0001F002000210022002B0014001A0008005D
:1000C00015001700E00004001600070009000A00F0
:1000D000E1001D001B000600190005000000E20001
:1000E000E30021522C002F002A00270026002500C3
:1000F000240023002D00130012000C0018001C0027
:10010000340033000F000E000D000B00E500380036
:1001100037003600100011000000E7002A002252CC
:100120002800300000000000000000000000000077
:100130003A003B003C003D003E003F0035001E02FF
:100140001F02200221022202010000000000000024
:10015000000000000000000000000000010000009E
:100160000000000000000000000000004500440006
:1001700043004200410040003502270226022502CA
:100180002402230201000000000000000000000023
:10019000000000000000000001000000000000005E
:1001A000000000000000000035001E001F002000BD
:1001B00021002200000000000000000000000000FC
:1001C000010000000000000000000000000000002E
:1001D00000000000010000004C00000000000000D2
:1001E0000000000031022700260025002400230023
:1001F000310000004F005200510050000100380053
:1002000025022D002E022E0000000000000000003C
:100210000100000000DA0281FFD9F1DB20A4A62E44
:10022000AF00A0C0D30000A1C8D30000AED580A805
:100230001F408D1420000001010101010101010195
:100240000202020202020202020303030303030387
:100250000304040404040404050505050506060654
:100260000606070707070708080808090909090A11
:100270000A0A0B0B0B0C0C0C0D0D0D0E0E0E0F0FB6
:100280000F10101111111212131314141515161644
:100290001717181819191A1A1B1B1C1D1D1E1E1FB3
:1002A0002020212222232424252626272829292A02
:1002B0002B2C2D2D2E2F303132323334353637382A
:1002C000393A3B3C3D3E3F40414243444546474826
:1002D000494A4C4D4E4F50515354555658595A5BFC
:1002E0005D5E5F616264656668696B6C6D6F70729C
:1002F000737577787A7B7D7E8082838587888A8C08
:100300008E8F91939596989A9C9EA0A2A3A5A7A93B
:10031000ABADAFB1B3B5B7BABCBEC0C2C4C6C9CB32
:10032000CDCFD1D4D6D8DBDDDFE2E4E7E9EBEEF0E8
:10033000F3F5F8FAFDFF00AF00AE05010906A101D3
:10034000050719E029E715002501950875018102C7
:100350009501750881010507190029FF150026FF81
:100360000095067508810005081901290515002565
:1003700001950575019102950175039101C009026E
:100380002200010100A0FA0904000001030101009C
:100390000921110100012244000705810308000121
:1003A000120100020000000883794C4C0001010298
:1003B000000110034C0069006C0079003500380022
:1003C0004C00000014034B006500790063006100DD
:1003D000700073007300730000000403090411240B
:1003E0001FBECFEFDAE0DEBFCDBF11E0A0E0B1E08D
:1003F000EEE6F7E402C005900D92AA37B107D9F7EF
:1004000025E0AAE7B1E001C01D92A739B207E1F7E4
:100410000E94A91B0C9461230C940000482F20918A
:10042000930590915A0557E0291302C080E0089582
:1004300030E0529FF001539FF00D1124E55AFA4F1E
:100440008181681306C08081481303C085818111B2
:10045000EECF2F5F3F4F2770E7CF982F9093E900A3
:10046000891779F05091EC002091ED004091F00057
:1004700021FD0AC09F5F973089F78093E90081E0F2
:100480000895562F40E022E03091EB003E7F3093FC
:10049000EB003091ED003D7F3093ED003091EB00AB
:1004A00031603093EB005093EC002093ED004093CB
:1004B000F0002091EE0027FDDDCF80E00895E8ED0B
:1004C000F0E080818E7F80831092E2001092DA004B
:1004D0001092E100A0EEB0E08C9181608C9380815D
:1004E0008F77808319BCA7EDB0E08C918E7F8C93C1
:1004F00080818F7E8083109243050895B0E0A0E054
:10050000E4E8F2E00C947622C8EDD0E088818F7E9A
:100510008883E7EDF0E080818160808384E082BFA2
:1005200081E08093430588818E7F888302EE10E00E
:10053000F80110821092DA0081EEC82ED12CF6015B
:10054000108288818F7788838881806888838881FA
:100550008F7D888319BC1092590510925005109216
:100560004F0510924E0590EEE92EF12CF701808197
:100570008B7F808388818160888360E080E00E9437
:100580002D02F60180818E7F8083F8018081816059
:100590008083808188608083F70180818E7F808363
:1005A000888180618883CDB7DEB7E8E00C94922221
:1005B0002091E4003091E50095E6A9012091EC003E
:1005C000822F817020FF06C08091E80080FF06C066
:1005D00080E008952091E80022FD1AC0809159051D
:1005E000882389F0853089F08091EB0085FD0FC06C
:1005F0002091E4003091E50042175307F9F2915041
:10060000E1F684E0089582E0089583E0089581E0B2
:1006100008958091510587FF13C08091E80082FF03
:1006200006C08091E8008B778093E80004C0809139
:1006300059058111F2CF0895809159058823D9F386
:100640008091E80080FFF8CF8091E8008E77ECCFB2
:10065000FC01809157059091580586179707A0F0E7
:100660006115710529F49091E8009E779093E80058
:1006700090E06115710551F4911108C08091E80076
:1006800082FF34C080E00895BC01F2CF809159050B
:100690008823C1F18530C1F18091E80083FD30C02D
:1006A0008091E80082FDEACF8091E80080FFE1CFF1
:1006B0008091F3002091F200382F6115710519F037
:1006C0002830310558F091E02830310509F090E0EC
:1006D0002091E8002E772093E800CBCF8191809382
:1006E000F100615071092F5F3F4FE7CF80915905AD
:1006F000882341F0853041F08091E80083FFBECF30
:1007000081E0089582E0089583E0089508950895B2
:10071000089580914505089587E797E7909301082C
:100720008093000888E19AE00FB6F894A89580932A
:1007300060000FBE90936000FFCF2FB7F8946091D8
:100740003F057091400580914105909142052FBF72
:1007500008959C01FC0132969FEF80E0419146177D
:1007600051F09F3F19F4411101C0982F8F5F8630DF
:10077000A9F79F3F09F40895290F311D97FD3A9578
:10078000F9016283089580913A05882359F0E09138
:100790003C05F0913D05309729F00190F081E02D66
:1007A0000995089580E00895FC01680F791F8FEF87
:1007B00091E32191822728E030E087FF09C0880F6C
:1007C000892721503109C9F7E617F70791F70895EE
:1007D000880FF7CF90E06623A1F0805B9E4FFC016D
:1007E00020812F3F89F0E22FE295EF70F0E080A1A9
:1007F00090E02F7002C0959587952A95E2F7817059
:100800000895815B9E4FEBCF80E0089590E06623D2
:10081000E9F0805B9E4FFC0180818F3FB1F0E82FB3
:10082000E295EF70F0E041A18F7021E030E0B90176
:1008300002C0660F771F8A95E2F7CB01962F90953D
:10084000942391A392A1892B82A30895815B9E4F4B
:10085000E2CF90913405E92FF0E09F012F5F3F4FE9
:1008600023703327409135054217130681F0EA5C67
:10087000FA4F282F2F7780818078822B60FB87F9B1
:1008800080839F5F93709093340581E0089580E0AA
:100890000895FA01811101C0FB0109950895609145
:1008A00044018091FF0280FF0CC070E08091430101
:1008B00023E0829FC0011124835D9D4F0E94660842
:1008C0000895809145019091460123E0829FF001B7
:1008D0001124E35DFD4F891740F7118210821282C7
:1008E0008F5F3396F8CF8091FF02982F9C7F71F431
:1008F0008091FF02837084608093FF0280910203E5
:10090000893718F088E7809302030895883080F7CC
:10091000F5CF80E00895FB0180818093350508952F
:10092000F894E82FE295EF70F0E031A1282F2F70B6
:1009300081E090E001C0880F2A95EAF7982F909502
:10094000932391A392A1892B82A3789408950F9366
:100950001F9380913A05882329F00E949D031F91DF
:100960000F9108950E949D030091F7011091F801E5
:100970002091F9013091FA01600F711F821F931FBE
:10098000EECF90910B0292FF10C041E0282F24710E
:10099000243009F040E031E0282F2871283009F098
:1009A00030E0431711F02CE0822793FF10C041E0A4
:1009B000282F2471243109F040E031E0282F2871DC
:1009C000283109F030E0431711F02CE082273091F4
:1009D0000C0230FF10C051E0282F2171213009F0A6
:1009E00050E041E0282F2871283009F040E05417EA
:1009F00011F029E0822731FF10C041E0282F21713A
:100A0000213109F040E031E0282F2871283109F028
:100A100030E0431711F029E0822794FD877E089586
:100A200082389105B9F1B0F48133910509F47DC0A4
:100A300048F48932910509F46DC08A32910509F4B0
:100A40007BC008958533910509F45FC08933910512
:100A500009F10895833E9105D9F138F4803E91055E
:100A600029F1823E910579F10895863E9105D9F1EB
:100A7000873E910509F43EC0843E910541F52091E1
:100A80000C0221FF24C080910B0284FD19C087EE67
:100A900090E0089520910B02237009F05AC0209134
:100AA0000C0223FF14C089E290E0089520910B020C
:100AB00020FD38C030910C0230FF09C024FF43C034
:100AC00090E080E0089520910B0222FDF7CF089579
:100AD00020910B0222FD3AC030910C0230FD39C04A
:100AE00024FFF5CFEDCF20910B0223FFF0CF24FDA3
:100AF000E7CFCDCF20910B0223FD2EC030910C0209
:100B000031FFEECF84EE90E0089520910B0225FF97
:100B1000DECFC9CF20910B0225FD21C020910C0210
:100B200023FFD5CF89E390E0D2CF20910B0226FF9F
:100B3000CECF8AE290E0089520910B0226FFC7CF26
:100B400081E390E0089583EE90E0089582EE90E0D6
:100B5000089580EE90E0089586EE90E0089585E394
:100B600090E00895972F7A30B8F46630A8F4833077
:100B7000B0F470E026E0929F600D711D1124FB011E
:100B80009CE3899FE00DF11D1124EE0FFF1FE4553A
:100B9000FF4F85919491089580E090E0089581E061
:100BA000FCCF1F93CF93DF930E941005EC01C1157A
:100BB00082E5D80708F03FC0C11590E5D90708F0D5
:100BC000C2C0C83ED105C0F4C03ED10580F4C53ACC
:100BD000D10548F4C430D10550F4C130D10539F005
:100BE000D0E0C0E004C0CD3CD105D0F3D065CE014B
:100BF000DF91CF911F910895C11580E4D80708F0C7
:100C000053C0C11590E2D90708F0B7C0C11581E003
:100C1000D80730F38D2F0E94C104182FCE019927D9
:100C20000E941005C12FD0E0DC2FCC27CC27DF712C
:100C3000C82BD92BDCCFC03892E5D907A8F4C03631
:100C400082E5D80708F063C0C03492E5D90708F000
:100C500049C0C03282E5D80788F1CF71D0E0DC2FDF
:100C6000CC27C16FD06AC3CFC03C92E5D90780F4CE
:100C70008C2F8F71C03AD24508F45EC00E94C10427
:100C8000C82FD0E0DC2FCC27CC27DF71D062AFCFCC
:100C9000C03E82E5D80708F0A3CFDC2FCC27CC27B5
:100CA000DF71C06FD06AA3CFCE0199270E941005D3
:100CB000CC27DF70C82BD92BD06A99CF2C2F269543
:100CC000269590E2299F900111248C2F8370C1E01A
:100CD000D0E002C0CC0FDD1F8A95E2F7C22BD32BE8
:100CE000DD6885CF2C2F26952695277080E2289FDA
:100CF000900111248C2F8370C1E0D0E002C0CC0F92
:100D0000DD1F8A95E2F7C22BD32BDC6870CF2C2F26
:100D100026952695277090E2299F900111248C2F0B
:100D20008370C1E0D0E002C0CC0FDD1F8A95E2F7EE
:100D3000C22BD32BDA685BCFC82FD0E0DC2FCC27B7
:100D4000C46FD06A54CF8C2F8F710E94C10455E0BC
:100D5000D695C7955A95E1F7CF70D0E0DC2FCC2718
:100D6000282F30E084FF05C044E0220F331F4A954E
:100D7000E1F7C22BD32BD0693ACF8D2F8F710E9410
:100D8000C104182FCE0199270E941005C12FD0E071
:100D9000DC2FCC27CC27DF71C82BD92B77CF8095C0
:100DA0009091B80198239093B8010895809193058C
:100DB00090915A05981301C008958F5F8770FACFFC
:100DC000B0E0A0E0E6EEF6E00C9475227C01009124
:100DD000090210910A028091070290910802082BE3
:100DE000192BCFE0D0E0CC24C394D12CBC2EC6016B
:100DF0000C2E02C0880F991F0A94E2F780239123DA
:100E0000892B49F4219790F7B12C8B2DCDB7DEB704
:100E1000E9E00C949122B7018C2F0E94B2050E9448
:100E2000D105019779F3F1CFCF93DF93EC010E94C5
:100E3000E006BE010E94B2050E94D105DF91CF916C
:100E400008959A3078F5863068F5E82FF0E086E06E
:100E5000989FE00DF11D11249E2F977083E0F69569
:100E6000E7958A95E1F7EE0FFF1FEE0FFF1FEA5798
:100E7000FE4F50E040E080E0219130E0092E02C0BA
:100E8000369527950A94E2F721703327042E01C086
:100E9000220F0A94EAF7822B4F5F5F4F44305105CF
:100EA00059F7089580E008959A3098F5863088F5CE
:100EB000E82FF0E086E0989FE00DF11D11248E2FC1
:100EC000877041E001C0440F8A95EAF783E0F69508
:100ED000E7958A95E1F7EE0FFF1FEE0FFF1FEA5728
:100EE000FE4F30E020E070E05191DF011197CB011F
:100EF000022E02C0969587950A94E2F7817081953B
:100F00008527842385278C932F5F3F4F243031051D
:100F100059F7089590930A0280930902089521E0F9
:100F200030E002C0220F331F8A95E2F720953095FA
:100F30008091090290910A02822393230E948A07DA
:100F400008959091AD01809589238093AD01282F5C
:100F5000277069F4891759F090910C0292FF07C02D
:100F60008695869586950E948F071092AD0108950B
:100F700021E030E002C0220F331F8A95E2F7809112
:100F8000090290910A02822B932B0E948A070895EE
:100F900090930802809307020895FC012481222384
:100FA000C1F0808191810E94140792959F709630C4
:100FB00091F058F4925F9F70923058F4803F19F08E
:100FC00030F4883E30F481E008959A5FF4CF843F96
:100FD000D1F380E00895883EB0F3813FD1F7F3CF9D
:100FE000A6E0B0E0E6EFF7E00C947B2249835A8359
:100FF00049815A819923A1F0222391F0CA010E94CC
:10100000E006182F682F89819A810E945407698110
:101010007A81812F0E94B2052696E3E00C949722F4
:10102000CA010E942107182FF2CF0F931F93CF936D
:10103000DF938C0180915905843059F581E08093CC
:10104000E9008FEF9091E800815095FD06C095ED85
:101050009A95F1F700008111F5CF8091E80085FFA6
:1010600018C00E94D80281110FC0C8E0D0E0809162
:10107000E80085FD13C08091E8008E778093E8003A
:101080000E94D802882399F38091E8008E7780939C
:10109000E800DF91CF911F910F910895F8018191A0
:1010A0008F018093F100219711F7EECFCF93DF935B
:1010B000EC010E94150888E0FE01A6E4B5E001906D
:1010C0000D928A95E1F7DF91CF910895539A4BB134
:1010D000477F5BB15860EFB7F8949B01220F331F35
:1010E000260F371F280F391F2817390741F4EFBF84
:1010F0008FE594E00197F1F700C000000895DC014E
:101100006D91CD0178E05BB9000000C067FF4BB97D
:10111000660F000000C000C000C04BB900C07A9547
:1011200091F7E2CFB0E0A0E0E8E9F8E00C94742297
:101130007C015B016A018091F60101E010E08A30D8
:1011400010F40AE010E0C1E0D0E0B501C701F601FB
:101150000995811104C021960C171D072CF4CDB7F9
:10116000DEB7EAE00C949022CC9F9001CD9F300D29
:10117000300D112490E080E045E34A95F1F700003E
:10118000019682179307C1F7E0CFAB0124E630E068
:10119000BC0188E70E940C2021E0892B09F020E0A7
:1011A000822F08958091300590913305911103C0ED
:1011B00091E089270895882369F062E070E088E370
:1011C00093E00E94C508811103C080913005089505
:1011D0001092300580913005EBCFCF93C091300550
:1011E000809133058823D1F00E949D03605A754198
:1011F0008F4F9F4F60932C0570932D0580932E0584
:1012000090932F05C11108C062E070E086E393E07F
:101210000E94C508811105C0C09130058C2FCF9167
:10122000089581E080933005F7CFB0E0A0E0EBE1D6
:10123000F9E00C94722249015A016B017C010E9471
:1012400073048401A4016A2D7B2D88E090E00E9444
:101250003F2394014A2D5B2DB601C70100E20E9495
:10126000D822622F84E290E00E942D23CDB7DEB712
:10127000ECE00C948E22B0E0A0E0E1E4F9E00C9404
:101280007222182FC62FD42F822E0091FF0200FF4A
:1012900051C080910003811308C08091010386131F
:1012A00004C080910203841729F080912C0282608F
:1012B00080932C02E02FE695E695F0E0E159FE4F91
:1012C000808180932A02802F8C7F8430E9F4ED2F77
:1012D000D93708F0E8E7F0E0EA5CFD4FC1112FC014
:1012E0002491F22FE22F00FF0FC0809145019091D1
:1012F000460133E0839FD0011124A35DBD4F8917C0
:1013000008F492C00E944F0410930003C09301039D
:10131000D0930203882071F02091FF0260910303B3
:1013200070910403312FAE01809105039091060363
:101330000E941509CDB7DEB7ECE00C948E22EC2E9E
:10134000F12CE4919E2ECE2ED12C26E0129FC001CE
:1013500011242FEF30E0B9010E945822812F90E034
:10136000880F991FF5E5F69FA001F79F500D1124F6
:10137000841B950BB82EBB0CB80EA9014E195F0942
:101380004C9DC0014D9D900D5C9D900D1124F92F39
:10139000CB9DA0011124452F5527D901A41BB50BC6
:1013A000AC9DA001AD9D500DBC9D500D1124D901E7
:1013B000AB19B1095D01AE9CD001AF9CB00DBE9CD4
:1013C000B00D1124AB2FBB272A1B3B0B2C9DD0014A
:1013D0002D9DB00D3C9DB00D11242B2F6230710559
:1013E000A1F050F46115710509F47DCF61307105EC
:1013F00081F0292FF52F77CF6430710569F080F0E7
:101400006630710509F46FCFF4CF2E2FE92FFB2F33
:101410006ACF2E2FE52F67CF292FFE2FEB2F63CF1B
:10142000E92FF92D252F5FCF1196EC9311972C936F
:101430001296FC9312978F5F139661CFEFEFF2E055
:10144000438121E1421B08F440E021E06281818177
:101450000E943B090895EFEFF2E0438121E1420F42
:1014600008F44FEF21E0628181810E943B090895D9
:10147000EFEFF2E0628121E1621B08F460E021E01D
:10148000438181810E943B090895EFEFF2E0628180
:1014900021E1620F08F46FEF21E0438181810E9416
:1014A0003B090895EFEFF2E0818121E04381628101
:1014B00088500E943B090895EFEFF2E0818121E01E
:1014C00043816281885F0E943B09089580910303F4
:1014D000882319F08150809303032091FF023091FB
:1014E0000003409101035091020360910303709146
:1014F000040380910503909106030E941509089545
:1015000080910303833018F48F5F8093030320914D
:10151000FF0230910003409101035091020360915A
:1015200003037091040380910503909106030E94C8
:10153000150908952091FF0220FF24C02370246024
:101540002093FF0280912C02816080932C026623FD
:1015500081F03091000340910103509102036091AA
:1015600003037091040380910503909106030E9488
:10157000150920E04091020360910103809100036E
:101580000E943B0908958091FF02869586958150BF
:1015900009F481E061E00E949A0A089561E081E027
:1015A0000E949A0A089590910C0292FB222720F93A
:1015B000281779F080FB92F990930C0260910B024E
:1015C00070910C0284E090E00E944B2382E00E9424
:1015D000A1070895B0E0A0E0E0EFFAE00C947722D4
:1015E0007901C82F880FDD0B41155105A9F0FE01C7
:1015F00093E0EE0FFF1F9A95E1F7E050FF4F8181D6
:1016000092818B539E4F208130E04217530708F49C
:101610009A01A9010E940023CE010E94E221D82E46
:101620008823D1F001151105B9F083E0CC0FDD1F3F
:101630008A95E1F7FE01E050FF4F438150E0041727
:10164000150708F4A801C050DF4F6C817D816B53F2
:101650007E4FC7010E9400238D2DCDB7DEB7E7E096
:101660000C949322ABE0B0E0E8E3FBE00C947A2228
:1016700088E0EFEFF2E0DE01119601900D928A957D
:10168000E1F780912A0290912B02A0912C02898788
:101690009A87AB872B854091F2015091F3016091BD
:1016A000F4017091F5013FB7F89480913F05909156
:1016B0004005A0914105B09142053FBF841B950BA9
:1016C000A60BB70B84369105A105B10510F42223B2
:1016D000C1F010E000E030E020E04BE050E0BE015F
:1016E0006F5F7F4F86E00E94EA0A882369F00E94BC
:1016F0009D036093F2017093F3018093F401909342
:10170000F50110922C0281E02B96E4E00C949622D5
:10171000A4E0B0E0EEE8FBE00C947A224091EE0108
:101720005091EF016091F0017091F1012FB7F894A1
:1017300080913F0590914005A0914105B0914205EF
:101740002FBF841B950BA60BB70B11E084369105B8
:10175000A105B10518F10E94A7046E5F7F4F8F4F5E
:101760009F4F69837A838B839C8310E000E030E095
:1017700020E044E050E0BE016F5F7F4F85E00E94B3
:10178000EA0A182F882351F00E949D036093EE010E
:101790007093EF018093F0019093F101812F2496D3
:1017A000E4E00C949622A1E0B0E0E9EDFBE00C94BB
:1017B0007122762E4A015901680101E010E09E0174
:1017C0002F5F3F4F50E040E070E060E00E94EA0A87
:1017D000182F882309F440C0F401408151816281AF
:1017E00073812FB7F89480913F0590914005A091A7
:1017F0004105B09142052FBF841B950BA60BB70B7B
:1018000084369105A105B10538F4B701C6010E94DF
:10181000D4039981891701F18701950150E040E0D7
:1018200070E060E0872D0E94EA0AB82EB701C60179
:101830000E94D40311E09981981310E01B2139F024
:101840000E949D03F4016083718382839383812FBF
:101850002196EDE00C948D22A701B601C5010E94EE
:101860000023F5CFA6E0B0E0E8E3FCE00C9478229A
:1018700086E0E82EF12C0CEC11E09E012F5F3F4F2B
:101880004AEE51E063E082E00E94D30BF82E8823F9
:10189000C9F09091CD018091CC01981318C010E04F
:1018A00000E030E020E041E050E06DEC71E084E0E9
:1018B0000E94EA0A66E070E08CEC91E00E94D4039A
:1018C0008093CB018F2D2696E6E00C949422292F4D
:1018D00030E0F901EB53FE4F618529533E4FF9018A
:1018E00087819F5F93709093CD01661F6627661F67
:1018F0008F770E942904CDCFA5E0B0E0E2E8FCE0BC
:101900000C9476226B0185E0E82EF12C06EC11E0B8
:101910009E012F5F3F4F46EE51E061E080E00E9464
:10192000D30B882349F095E0FE013196A1EEB1E09A
:1019300001900D929A95E1F795E0E1EEF1E0D60184
:1019400001900D929A95E1F72596E8E00C94922289
:101950002091B8018091AF01282B8091AE0188239E
:1019600081F0282B30E08EE791E0FC014191CF011E
:1019700041113F5FF1E084389F07B9F731111092B0
:10198000AE0120937C0148E050E060EB71E08CE711
:1019900091E00E94F322892BA9F088E0ECE7F1E0C6
:1019A000A0EBB1E001900D928A95E1F7E0913C0542
:1019B000F0913D05309731F00280F381E02D8CE706
:1019C00091E0099508951092B801EEE7F1E086E004
:1019D000DF011D928A95E9F71092AF010E94A80CD1
:1019E0000895AAE2B0E0E7EFFCE00C947B2281E5E9
:1019F00095E02091F100FC012193CF01F5E08935BC
:101A00009F07B9F780915205833009F470C0B8F48C
:101A1000813009F447C0823009F4B1C08091E800F8
:101A200083FF64C280915105909152059A3008F06D
:101A30005DC2E92FF0E0ED59FC4D0C94B7228A30DD
:101A400009F48CC08B3009F46FC0893039F780916C
:101A50005105813219F78091550590915605892BD2
:101A6000E9F68091E800877F8093E8008091E800A4
:101A700082FF38C09091F3008091F200029731F418
:101A80008091F100813011F0863021F48091F100D5
:101A9000809345058091E8008B778093E8000E9451
:101AA0000903BCCF80915105813A09F0B7CF8091ED
:101AB000E800877F8093E800809155059091560556
:101AC000892B61F468E086E495E070E00E942803C9
:101AD0008091E8008B778093E800A0CF60E090E0F1
:101AE00080E0F3CF809159058111C0CF97CF8091CD
:101AF0005105813A09F092CF809155059091560594
:101B0000892B09F08BCF8091E800877F8093E800D4
:101B10008091E80080FFFCCF809151018093F1001B
:101B20008091E8008E77B9CF80915105813209F01C
:101B300075CF8091550590915605892B09F06ECF90
:101B40008091E800877F8093E8000E9409038091DC
:101B50005305809351010E94E30C60CF80915105A1
:101B6000813209F05BCF8091E800877F8093E800A5
:101B70000E94090380915405809344054FCF8091C2
:101B80005105813A09F04ACF8091E800877F809320
:101B9000E8008091E80080FFFCCF80914405BECF33
:101BA000803899F0823809F0A1C1809155058F7075
:101BB000873008F09BC18093E9008091EB0085FBA2
:101BC000882780F91092E90006C080914E05909117
:101BD0004F05911182609091E800977F9093E80003
:101BE0008093F1001092F1008091E8008E777AC125
:101BF000882309F468C1823009F078C180915305C7
:101C000081116BC1809155058F702FEF280F263001
:101C100008F06CC18093E9002091EB0020FF5DC1CA
:101C2000933031F48091EB0080628093EB0055C1DA
:101C30009091EB0090619093EB0021E030E001C0C7
:101C4000220F8A95EAF72093EA001092EA00809129
:101C5000EB008860EACF811149C1109153051F77CD
:101C60008091E3008078812B8093E3008091E800ED
:101C7000877F8093E8000E9409038091E80080FF3D
:101C8000FCCF8091E30080688093E30082E0111133
:101C900083E0809359052AC18058823008F026C11C
:101CA00080915305909154058C3D23E09207A1F556
:101CB00083E08A838AE289834FB7F894DE01139622
:101CC00020E03EE051E2E32FF0E050935700E49132
:101CD00020FF03C0E295EF703F5FEF708E2F90E022
:101CE000EA30C0F0C7968D939D932F5F243159F74A
:101CF0004FBF8091E800877F8093E8006AE270E040
:101D0000CE0101960E9428038091E8008B77809392
:101D1000E800ECC0C096E7CF4091550550915605BC
:101D2000292F33272330310509F43FC078F52130BE
:101D3000310509F466C082E290E0EEE7F3E022307C
:101D4000310509F0D3C02091E800277F2093E800F7
:101D500020915705309158058217930708F49C018C
:101D600040E02115310509F051C041114FC080916B
:101D7000E80082FDC9CF80915905882329F285307A
:101D800019F28091E80083FFF2CFBECF21323105F6
:101D900081F12232310509F0A9C0452B09F0A6C016
:101DA00084E490E0EAE3F3E0CECF99278130910517
:101DB000C1F0009759F0029709F098C0E2EBF3E008
:101DC000E4918E2F90E0E2EBF3E007C0EAEDF3E060
:101DD000E4918E2F90E0EAEDF3E0009709F0B3CFA5
:101DE00085C0E4ECF3E0E4918E2F90E0E4ECF3E0C6
:101DF000F4CF452B09F07AC089E090E0E0E9F3E008
:101E0000A2CF82E190E0E0EAF3E09DCF8091590516
:101E1000882309F479CF853009F476CF8091E800E2
:101E200083FD72CF8091E80082FDA1CF8091E80010
:101E300080FF97CF9091F3008091F200211531053A
:101E400019F08830910550F041E0089709F040E022
:101E50008091E8008E778093E80083CF449140938F
:101E6000F1003196215031090196E8CF8038F1F523
:101E70008091E800877F8093E800809150058093EF
:101E8000F100B2CE811132C010915305123070F5BD
:101E90008091E800877F8093E800109350050E94AE
:101EA0000903112311F084E005C08091E30087FD50
:101EB000FACF81E08093590561EC81E00E942D0208
:101EC0008091590513C080915305813079F481E0E8
:101ED000933009F080E080934F051092E9008091E3
:101EE000E800877F8093E8000E9409038091E80062
:101EF00083FF0AC08091E800877F8093E80080918B
:101F0000EB0080628093EB00AA96E3E00C949722AA
:101F10000E94E30C2FEF84E39CE02150804090402E
:101F2000E1F700C0000088E19AE00FB6F894A895A8
:101F3000809360000FBE90936000FFCF882321F054
:101F40000E94CF060E94A80C0895882339F0909132
:101F5000B801982B9093B8010E94A80C089588238B
:101F600091F09CEF980F913A78F4EEE7F1E09191BF
:101F7000891303C0DF0111971C9291E0E438F9073F
:101F8000B1F70E94A80C089590E2980F9830D8F706
:101F9000877091E001C0990F8A95EAF7892F0E9416
:101FA000CF06EFCFCF93C82F8823A9F08CEF8C0FEB
:101FB000813A00F5EEE7F1E0DF018D91C81769F095
:101FC00081E0A438B807C9F76C2F8CE791E00E9434
:101FD000A9030E94A80CCF9108958191C81303C052
:101FE000DF0111971C9281E0E438F807B1F70E94F5
:101FF000A80CEACF80E28C0F883068F7C77021E028
:1020000030E001C0220FCA95EAF78091B801822B17
:102010008093B801DECF80E09091350520913405A2
:10202000921301C00895E92FF0E0EC5CFA4F828131
:102030009F5F93709093350587FF0EC08EE40E94DA
:10204000D20F8FE39CE90197F1F700C000008EE406
:102050000E94AF0F81E0E0CF8BE40E94D20F8FE3AC
:102060009CE90197F1F700C000008BE4F1CF1F92CB
:102070000F920FB60F9211242F933F934F935F93BC
:102080006F937F938F939F93AF93BF93CF93DF9380
:10209000EF93FF93D091E900DF708091EC00C82F9F
:1020A000C17080FDC0E81092E9008091F000877F48
:1020B0008093F00078940E94F10C1092E9008091D6
:1020C000F00088608093F000CD2BCF70C093E900C2
:1020D000FF91EF91DF91CF91BF91AF919F918F9140
:1020E0007F916F915F914F913F912F910F900FBE14
:1020F0000F901F9018951F920F920FB60F921124F8
:102100002F933F934F935F936F937F938F939F93FF
:10211000AF93BF93EF93FF938091E10082FF09C0DB
:102120008091E20082FF05C08091E1008B7F809367
:10213000E1008091DA0080FF24C08091D80080FF08
:1021400020C08091DA008E7F8093DA008091D900E0
:1021500080FF9CC080E189BD82E189BD09B400FE99
:10216000FDCF81E08093590580914305811109C01D
:102170000E945F020E947E028091E2008460809350
:10218000E2008091E10080FF17C08091E20080FFB3
:1021900013C08091E2008E7F8093E2008091E20084
:1021A00080618093E2008091D80080628093D800A3
:1021B00019BC85E0809359058091E10084FF2BC014
:1021C0008091E20084FF27C080E189BD82E189BD62
:1021D00089B5982F917080FFFBCF8091D8008F7DBB
:1021E0008093D8008091E1008F7E8093E100809100
:1021F000E2008F7E8093E2008091E2008160809314
:10220000E20080915005882309F446C084E0809361
:102210005905809159058091E10083FF26C0809186
:10222000E20083FF22C08091E100877F8093E1007C
:1022300082E080935905109250058091E1008E7FD5
:102240008093E1008091E2008E7F8093E200809194
:10225000E20080618093E20060E080E00E942D0255
:102260008091F00088608093F000FF91EF91BF9122
:10227000AF919F918F917F916F915F914F913F911E
:102280002F910F900FBE0F901F90189519BC1092B0
:1022900059051092430575CF8091E30087FD93E0C7
:1022A00090935905B6CF78941F921FB61F921124B0
:1022B0008F939F93AF93BF9380913F05909140057B
:1022C000A0914105B09142050196A11DB11D8093D9
:1022D0003F0590934005A0934105B0934205BF91FF
:1022E000AF919F918F911F901FBE1F9018959C01D9
:1022F0004FB7F89480913F0590914005A09141051A
:10230000B09142054FBF821B930B08952FB7F894ED
:1023100080913F0590914005A0914105B091420503
:102320002FBF08950F931F93CF93DF93C62FD42F02
:10233000022FFC0185818823A9F0609396050E94F5
:1023400086119093950580939405C77081E001C034
:10235000880FCA95EAF70E94A50FDF91CF911F91D0
:102360000F91089580919605681335C0809194056A
:10237000909195050E947711883C910560F510E2D7
:102380001D0FCD17B9F080E28C0F883040F4C77074
:1023900081E001C0880FCA95EAF70E949E0F1830AD
:1023A00048F481E09D2F977001C0880F9A95EAF755
:1023B0000E94A50F802F0E94D20F802F0E94AF0F86
:1023C000183058F6D77081E001C0880FDA95EAF727
:1023D0000E949E0FC2CFC77081E001C0880FCA95CE
:1023E000EAF7F6CFB0E0A0E0E8EFF1E10C94742258
:1023F0008C01FC018481882341F121E040815181DD
:102400006281738195810E94F007EC01FC01E85123
:10241000FC47E730F105A8F5E359FC4D0C94B722D1
:1024200026E241EE61EEC8010E9492118091AD0159
:10243000877059F0F8018581882339F080910C026A
:1024400082FF03C082E00E94A107CDB7DEB7EAE0B9
:102450000C94902227E245EE65EEE5CF26E241EEB0
:1024600060EEE1CF27E245EE64EEDDCF26E241EEFD
:1024700062EED9CF27E245EE66EED5CF28E241E005
:10248000EBCFF8018581882309F4ACC3109296053F
:10249000CE019057839708F08FC384E090E00E94AC
:1024A000172390930C0280930B02FE01E150F0473A
:1024B000E232F10520F4EC58FC4D0C94B7228091E7
:1024C0000B02816080930B0295C080910C028860A2
:1024D00080930C028FC080910B028260F3CF8091B9
:1024E0000B028460EFCF80910B028860EBCF80916C
:1024F0000C028160EDCF80910C028260E9CF809167
:102500000B028061DFCF80910B028062DBCF809174
:102510000B028064D7CF0E94E30C80910B0280688D
:10252000D1CF80910B028C60CDCF80910C02836063
:10253000CFCF80910B028E7FC5CF80910C02877F19
:10254000C7CF80910B028D7FBDCF80910B028B7F17
:10255000B9CF80910B02877FB5CF80910C028E7F1F
:10256000B7CF80910C028D7FB3CF80910B028F7E0D
:10257000A9CF80910B028F7DA5CF80910B028F7B1D
:10258000A1CF0E94E30C80910B028F779BCF8091AB
:102590000B02837F97CF80910C028C7F99CF809123
:1025A0000B0282FB992790F921E0922790FB82F998
:1025B00090FB83F987CF80910C02982F90959170B2
:1025C0008E7F892B90FB81F983CF90910B02892F0D
:1025D0008F7B96FF806476CF0E94E30C90910B0274
:1025E000892F97FB87F980586DCF61E08EE090E0EE
:1025F0000E942D2360910B0270910C0284E090E008
:102600000E944B230E94E30C11CF60E0EFCF90912A
:102610000B02892F8F7E94FF806154CF90910B0223
:10262000892F8E7F90FF81604DCF90910C02892F72
:10263000877F93FF88604CCF85E3DDC28091FF02E6
:1026400080FF1CC0282F2E7F2093FF0230910003B3
:1026500040910103509102036091030370910403C0
:1026600080910503909106030E94150980912C0228
:10267000816080932C020E944F04D8CE81608093A9
:10268000FF0261E0869586950E949A0ACFCE43ECC0
:102690005AE06EEC7AE00E944904C8CE4EEC5AE053
:1026A00063EC7AE0F8CF42E55AE06CE57AE0F3CFEC
:1026B0004CE55AE062E57AE0EECF48E35AE065E4A3
:1026C0007AE0E9CF45E45AE068E37AE0E4CF4EE10E
:1026D0005AE06BE27AE0DFCF4BE25AE06EE17AE05B
:1026E000DACF46E65AE060E87AE0D5CF40E85AE033
:1026F00066E67AE0D0CF61E081E0C6CF0E94E30CCD
:10270000FFEF24E33CE0F15020403040E1F700C00F
:1027100000000E948C036FEF7FEF90E080E00E944A
:102720004B230E94880F80910C0282FB882780F93E
:1027300091E089270E94D30AF8018581C081D18167
:10274000882309F44DC0CE010E94E006F82E682FC0
:10275000CE010E945407BE018F2D0E94B2050E9437
:10276000D105F82EC92FA82EF801C580B680B294E5
:102770009FE0B9228091AD01877009F1EC2CCC204B
:10278000F9F08C2F807F803469F080E28F0D8830E3
:10279000B0F08C2F807E803229F4F1E0FF1578F4C0
:1027A000BB2069F080910C0282FF09C082E00E9488
:1027B000A1078091AD018770EE24E3948111E12C93
:1027C000DC2ED2948FE0D8222BE02D1508F46AC0BD
:1027D000ED2DF0E0EA56FC4D0C94B72280E0AACF34
:1027E000CE010E942107F82EB6CFDC2FDF70C07F0C
:1027F00011F0D295D07FCC20B9F0DD2369F080E2D2
:102800008F0D883010F0A11009C08091B801D82B2D
:10281000D093B8010E94A80C8F2D42C08091AF01C7
:10282000D82BD093AF01F6CF8F2D0E94AF0FDD23B1
:10283000C9F180E28F0D883010F0A11004C08D2FF7
:102840000E94CF0606C0D0958091AF01D823D093C7
:10285000AF010E94A80C26C0DC2FDF70C07FC03201
:1028600011F0D295D07FAA2059F031E0A31609F4D7
:1028700078C0CC2009F484C0BB2009F446C0CCCF7A
:1028800080910C0282FD3DC0CC20A9F1DD2339F0FE
:102890008091B801D82BD093B8010E94A80C80E099
:1028A0000E94D20FED2DE850FF0B349710F40E94D8
:1028B000C303EE20A9F08091AD0180FD11C0F801A5
:1028C00015828695869586950E94B807C8010E9454
:1028D000F2118091AD018695869586950E948F07AD
:1028E00020E0F8014081518162817381848195816A
:1028F0000E94F007AACD80E00E94AF0FDD2391F285
:102900009ECFCC20A1F0B11004C08D2F0E94A50F46
:10291000C9CF81E0B812C6CF8091AE019D2F982318
:10292000D91709F4BFCFD82BD093AE01BBCFB110CC
:10293000B9CF8D2F0E949E0F9091AE018D2F8923CC
:1029400029F08D2F809589238093AE018091850198
:102950009D2F982309F4A6CFD095D823D093850135
:10296000A1CFCC2029F095E09B1508F49BCFCDCFCB
:10297000E4E0EB1508F496CF8D2F0E949E0F92CFC6
:10298000BB20D1F3F9E3AF1210C12FEF37EE83E094
:10299000215030408040E1F700C0000006C18C2F7C
:1029A000837009F03FC0C1107DCF4F2D42954695F1
:1029B0004770440F440F2F2D2F7030E0042E02C0BB
:1029C000220F331F0A94E2F790E080E0F4FE09C082
:1029D0008FE090E002C0880F991F4A95E2F780953A
:1029E0009095C695C695C370C23099F078F4409121
:1029F000070250910802C13039F0822B932B8423B7
:102A000095230E94C8074ECF242B352B822B932B66
:102A1000F8CF822B932B2091070230910802822756
:102A20009327EFCF8695CC2011F08C2F81708823CF
:102A300009F438CF4F2D429546954770440F440F07
:102A40002F2D2F7030E0042E02C0220F331F0A9466
:102A5000E2F790E080E0F4FE09C08FE090E002C071
:102A6000880F991F4A95E2F780959095C695C6956F
:102A7000C370C23099F078F44091090250910A0273
:102A8000C13039F0822B932B842395230E948A072F
:102A900009CF242B352B822B932BF8CF822B932B12
:102AA0002091090230910A0282279327EFCFCF703D
:102AB000CC2029F08C2F0E94B8078F2D27CF8F2D87
:102AC0000E949E0F8C2F0E948F07ECCE8F2D92EFCD
:102AD000A91699F19A1570F0E0EFAE16D1F0F1EF6A
:102AE000AF1691F0CC2009F45BC0B11095CE8C2FBD
:102AF0008F7127C023EFA21639F134EFA312F2CF62
:102B000080910C0282FD2EC08C2F8F71CC20D9F2C7
:102B100018C0CC2069F084E08B1508F4C3CECF71C7
:102B200081E090E002C0880F991FCA95E2F7B8CF04
:102B300095E09B1508F4B6CEF2CF8C2F8F71C110A3
:102B4000C2CF0E94B807AECE90E080E0CC2009F45E
:102B50009DCFCF7181E090E002C0880F991FCA9588
:102B6000E2F794CFCC2089F0CF718C2F0E94B80768
:102B700080910C0282FF07C0E8E0CE9FC0011124C3
:102B800083608093AD018C2FDCCF81E00E94A10790
:102B9000F1E0FB1508F086CE82E00E94A10782CE0C
:102BA000BB2039F0893309F4F0CE8F2D0E94AF0F8E
:102BB00079CE8C2F8F7187CFC631FCE7DF0749F5BF
:102BC0008091B8018A7A91E009F490E090938401B1
:102BD00069E2811165E38CE791E00E94A9030E94FC
:102BE000A80C24CCC6312CE7D20799F5809184013A
:102BF000811122CD89E2EEE7F1E024E831E0919104
:102C0000891303C0DF0111971C922E173F07B9F7F4
:102C1000E6CFC3303CE7D30709F47DCD50F4C115AE
:102C20009CE7D90709F46ACDC130DC4709F479CDB6
:102C300083CDCB35FCE7DF0709F4D0CDCC352CE7CD
:102C4000D20709F470CDCA35DC4709F075CD81E0B3
:102C500071CD8091B8018272FE01E052F847E531F2
:102C6000F10508F069CDEE55FC4D0C94B722CF93D9
:102C7000DF938091AC01807F09F04DC08091AB0162
:102C8000882309F448C0E091930550915A05C091FA
:102C9000A701D091A6016091A8017091A90147E018
:102CA0005E17C9F18E2F90E0E49FF0011124E55AE0
:102CB000FA4F2481222391F1489FF001499FF00DA2
:102CC0001124DF01A55ABA4F11962C9111972C139C
:102CD00025C02C912D1322C015962C9115972111EA
:102CE0001DC012962D913C91261B370B283C3105B7
:102CF000A8F48091AC018F7080618093AC01EF5992
:102D0000FA4F80818F708061808386EA91E00E9413
:102D1000F2110E94D606DF91CF910895FC01319601
:102D2000E770BECFA4E1B0E0E8E9F6E10C947222CE
:102D30008C0186E0F801DE011F9601900D928A95C4
:102D4000E1F7F8018481E58096EAA92E91E0B92E99
:102D50009091AA01911128C0882319F1EE20F1F079
:102D6000C8010E94CD07F82E8823C1F087E0F80142
:102D7000D50101900D928A95E1F78091AA018130E9
:102D800031F48091A6019091A7010E9414070E943E
:102D900037168F2D6496ECE00C948E22C8010E94A9
:102DA000F211FF24F394F5CFD080C180828093800C
:102DB000F090AB012091A8013091A901A401421B20
:102DC000530BFF2009F4D9C0483C510508F092C0CC
:102DD0008823F9F29091A7018091AC01282F207FE0
:102DE00009F056C0C91214C09091A601D91210C0A2
:102DF000E11048C08F7080618093AC0186EA91E059
:102E00000E94F2118091AC01F8018683F12CC1CFB0
:102E1000E11038C06C2D8D2D0E940E026C2D8D2D71
:102E20000E940E02E82E8111F1CFDF86C88A8F85BD
:102E300098890E941407292F22952F70243058F466
:102E40009F70223088F0992399F0F8019681907F45
:102E500079F4FE2C9ECF2A5F2F70223068F0C801D3
:102E60000E94F211EF2CF5CF992311F0882389F3FA
:102E7000805E883070F3F3CF803F58F3815F8330FA
:102E800070F7E7CF8091AC0181608093AC01BECF39
:102E9000C91207C09091A601D91203C0EE2009F40F
:102EA0008DC0C8010E94CD07882309F477CFEE209A
:102EB00009F474CF8091AC01803288F02091A60192
:102EC0003091A701398728879B868A869091AA012D
:102ED0009C871D868E87CE0108960E94F21187E09E
:102EE000F801A6EAB1E001900D928A95E1F70E94FF
:102EF000371657CF9091AC01292F207F51F486EAE5
:102F000091E00E94F21187E0F50111928A95E9F7AC
:102F10007DCF882309F43DCF8091A7018C1110C08B
:102F20008091A601D8120CC0E1100AC09683C80196
:102F30000E94F21187E0F50111928A95E9F729CFF5
:102F4000C8010E94CD07882309F428CFEE2009F498
:102F500025CF8091AC01803210F22091A6013091F2
:102F6000A7013A8329839C828B829091AA019D8339
:102F70001E828F83CE010196B0CF483C5105D0F61A
:102F8000882309F40ECFFE2CEE2009F407CF8091A0
:102F9000A7018C1120C08091A601D8121CC080917D
:102FA000AC0180FD0FC0982F907F61F08683903F29
:102FB00031F0982F907F905F8F70892B8683C801A6
:102FC0000E94F21187E0F801A6EAB1E001900D92AB
:102FD0008A95E1F7DECEC8010E94CD0781117FCF2F
:102FE0008091AC0181608093AC01C8010E94F21114
:102FF000D0CEABE1B0E0EFEFF7E10C947A224E8B4C
:103000005F8B688F798F8A8F9B8F192F9111109208
:10301000AF011D8A86E0FE017696DE011F960190C3
:103020000D928A95E1F70A8D002341F021E04F854A
:10303000588969897A89C8010E94F0070B8B1C8B1B
:1030400087E0FE013F96DE01189601900D928A9569
:10305000E1F7CE0108960E94921681112AC087E0FE
:10306000FE013896DE01119601900D928A95E1F7E6
:103070008C858823F1F020915A0530E0C901019632
:10308000877099274091930548171906E9F097E052
:10309000929FD001939FB00D1124A55ABA4FFE0103
:1030A000319601900D929A95E1F780935A050E940E
:1030B000D60617E08091930590915A05891312C0A6
:1030C0006B96E4E00C9496220E94E30C10925A0551
:1030D0001092930587E0E6EAF1E0DF011D928A9500
:1030E000E9F7E7CF819FC0011124855A9A4F0E94CA
:1030F0009216882329F38091930590E001968770BA
:10310000992780939305D6CF2F923F925F926F922B
:103110007F928F929F92AF92BF92CF92DF92EF9267
:10312000FF920F931F93CF93DF93809133058823F2
:1031300069F180913105909132050E947711C29713
:1031400030F00E9486119093320580933105809172
:103150002A0590912B05892B59F5809130058823FC
:10316000A9F00E949D0300912C0510912D0520913E
:103170002E0530912F05601B710B820B930B6F3F57
:103180007F4F8F4F9F4710F40E94D208DF91CF915D
:103190001F910F91FF90EF90DF90CF90BF90AF9075
:1031A0009F908F907F906F905F903F902F900895A9
:1031B000809129058111D1CF0E94ED0820912A0527
:1031C00030912B052115310541F280E041E050E0BE
:1031D000082F10E01A01082E02C0220C331C0A949A
:1031E000E2F7B10162237323672B11F48F5FF0CFF5
:1031F0009091280590FF95C0880F880F880F8093C5
:103200004A0110924D01895F80934B0183E08093C6
:103210004E0124E630E047E050E068E471E088E7E2
:103220000E94C81F892B09F098CFA80125E0440F00
:10323000551F2A95E1F78091280580FF84C0E8E0BA
:10324000F3E080E2DF011D928A95E9F7A5E7B1E09E
:1032500001E711E089E7C82E81E0D82E97E0592ECA
:10326000772473948D91E80129918E01240F352FD5
:10327000311D285D3C4FE82FF0E0E85FFC4F90E007
:1032800080E0652C681A872C082E01C0880C0A94EF
:10329000EAF77901A12CE701B9907E01B820662DEB
:1032A0006A196770962E062E000C770BDB2D01C075
:1032B000DD0F9A94EAF77195619571096770772728
:1032C00001C0B6946A95EAF7BD2A6081962E9B28C4
:1032D0009082A39468E0A612DECF019631968830E2
:1032E000910579F6CA16DB0609F0BCCF04E610E0BA
:1032F00020E230E048E053E060E488E70E9452209A
:10330000892B09F02ACFE101C095D09580912A053B
:1033100090912B05C823D923D0932B05C0932A0560
:103320001CCF8295880F807680934A01980136954C
:1033300027953695279520934D01815E80934B010B
:1033400020934E0166CF485D5C4F04E610E020E21A
:1033500030E0D2CFA5E1B0E0E0EBF9E10C947122CE
:103360008E01045F1F4F8AE0F80111928A95E9F7F8
:1033700084E5C82E81E0D82EF12CE12CAA24A39458
:10338000B12C2FE5822E21E0922EF60181916F0162
:103390008F3F09F442C0F894E82FE295EF70F0E017
:1033A00021A18F70A50102C0440F551F8A95E2F735
:1033B000CA01922F982B91A392A18095892382A371
:1033C000789400C0E9E5F1E0712C31E021912F3FC4
:1033D00009F49CC0A22FA295AF70B0E090968C919A
:1033E00090E02F7002C0959587952A95E2F780FDB1
:1033F0008DC0832F782A330F8E169F0639F7F6017A
:10340000319780818F3F11F00E94900450EA5A95C5
:10341000F1F7F801EE0DFF1D70828FEFE81AF80A40
:1034200095E0E916F10409F0B0CF4AE050E0B801A8
:103430008BEF91E00E94F322009741F02AE0F8011F
:10344000ABEFB1E001900D922A95E1F700910602F1
:1034500010E0025F1D4F892B09F45AC081E0809370
:10346000BD010E9486119093BC018093BB01D12CB9
:10347000C0903A05FE0131967F0185E0CC2009F429
:103480009DC011928A95E9F78091F6018A3008F083
:1034900063C04CE75CE0B701C8010E949208882332
:1034A00009F47BC042E35CE0B701C8010E949208C6
:1034B000882309F472C048E85BE0B701C8010E94A4
:1034C0009208882309F469C042E35BE0B701C801B0
:1034D0000E949208882309F460C01092F60180913E
:1034E000050290E045E050E0B701825F9D4F0E94E9
:1034F000F32221E02093C401892B09F042C0C12CA2
:103500008C2D8D296596EDE00C948D2280E072CF94
:10351000D090BD01DD2009F4AACF8091BB0190912C
:10352000BC010E947711059708F4A1CF45E050E057
:103530006BEF71E0C8010E94F322892B59F085E0FE
:10354000EBEFF1E0D80101900D928A95E1F710922E
:10355000BD018ECFD12CFBCF8091BE019091BF01D8
:103560000E947711843F914008F093CF8091C4016D
:10357000882329F285E0F70111928A95E9F71092E4
:10358000C401A0910502B0E0A25FBD4F85E0F70144
:1035900001900D928A95E1F7B3CF8091F6018F3FAC
:1035A00031F08F5F8093F6018A3008F498CF0E9443
:1035B00086119093BF018093BE01D8CFF801A6EC8D
:1035C000B1E001900D928A95E1F765E070E086EC3C
:1035D00091E00E94D4038093C50186E0E4E3F5E026
:1035E000ACECB1E001900D928A95E1F766E070E0F5
:1035F0008CEC91E00E94D4038093CB018090D201A7
:103600009090D301A090D401B090D5018091C001D9
:103610009091C101A091C201B091C3018816990691
:10362000AA06BB06B1F08092C0019092C101A0929F
:10363000C201B092C3010E949D03861A970AA80A8C
:10364000B90A8092F7019092F801A092F901B09224
:10365000FA018BE0E6EDF1E0D70101900D928A9539
:10366000E1F72981822F869586950A81FB80EC807F
:103670001B851092E001112309F442CF10FF0AC00C
:103680009091FF0220FF0FC091609093FF0260E0D5
:103690000E949A0A11FF34CF20E04E2D6F2D802F0B
:1036A0000E943B092DCF9E7F9093FF0280912C02B8
:1036B000816080932C020E944F04ECCFA6E0B0E022
:1036C000E4E6FBE10C947A220E9486118C01809141
:1036D000B9019091BA018017910781F019821A827D
:1036E0000E948611682F49815A81792F80E090E0ED
:1036F0000E94F9171093BA010093B9012696E4E0ED
:103700000C9496221F921FB61F9211248F939F93A1
:10371000AF93BF9380913E05811113C080913F0507
:1037200090914005A0914105B09142054196A11D9F
:10373000B11D80933F0590934005A0934105B09340
:103740004205BF91AF919F918F911F901FBE1F9017
:103750001895CDB7DEB728970FB6F894DEBF0FBE29
:10376000CDBF85B7806885BF85B7806885BF84B7C2
:10377000877F84BF0FB6F894A89580916000886118
:1037800080936000109260000FBE80E890E00FB65A
:10379000F89480936100909361000FBE89E894E0F3
:1037A00090937B0180937A010E945F020E947E02C7
:1037B0008091E20084608093E200789480915905C2
:1037C0008823A1F01091E9001F709091EC00892FDF
:1037D000817090FD80E8182B1092E9008091E8003C
:1037E00083FD0E94F10C1F701093E90082E084BDFC
:1037F00093E095BD9AEF97BD80936E001092F7010C
:103800001092F8011092F9011092FA018091D800FB
:1038100080618093D8002AE12A95F1F700C0809159
:10382000D900182F117080FD04C00E945F02109211
:10383000590510933A0510933B0510933801112355
:1038400009F402C11092430183E2809344010E9473
:10385000F620E4E3F5E086E0DF011D928A95E9F7C2
:103860008091380191E08927809325028091380169
:10387000909328028091380180913801811106C00F
:1038800085EF80934F0184EF8093500160E080E0EA
:103890000E94060461E080E00E940604EFE8F1E087
:1038A0003197F1F700C0000010E08091280218174E
:1038B00008F4D0C0809138018091380195E08111E1
:1038C00090E09093060285E0891B8093050204E551
:1038D00011E0D8018D918D018F3F11F00E9490046D
:1038E000B1E009351B07A9F709E511E0F80181915D
:1038F0008F018F3F11F00E949004F1E00F351F07F8
:10390000A9F78AE0EEE0F2E0DF01282F1D922A9568
:10391000E9F7EBEFF1E0DF011D928A95E9F790E01E
:1039200080E00E941723863E9E4F09F466C066EE33
:103930007EEF90E080E00E944B2360E082E090E028
:103940000E942D2381E090E090930802809307026B
:1039500061E083E090E00E942D2360E074E184E068
:1039600090E00E944B2360E086E090E00E942D23CF
:1039700060E087E090E00E942D2340E050E0BA0133
:1039800088E090E00E943F2360E084E290E00E94A3
:103990002D2360E087E190E00E942D2360E08CE021
:1039A00090E00E942D2360E08DE090E00E942D23A6
:1039B00019821A821B821C821D821E821F82188617
:1039C00048E050E068E170E0CE0101960E941D23BE
:1039D00040E050E0BA0180E290E00E943F2340E0E6
:1039E00050E0BA018FE090E00E943F2340E050E0B9
:1039F000BA0183E190E00E943F2382E090E00E94C0
:103A000009238093180284E090E00E94172390938A
:103A10000C0280930B020E94AA19EFEFF6E721E057
:103A2000E150F0402040E1F700C000000E94AA19D8
:103A300080910E0280FF20C06FEF7FEF90E080E06A
:103A40000E944B230E948C0383E280934301809366
:103A50004401FFCE60E0812F0E94EA03082F61E05D
:103A6000812F0E94EA03E12FF0E0EA5DFD4F880F0D
:103A7000802B80831F5F19CF83E090E00E94092391
:103A800090E00E94C8071092280580E88093070301
:103A90000E94941F6BE070E08BE292E00E94C508E8
:103AA0008823C9F18091280565E070E081FD23C17C
:103AB00086E292E00E94C508882369F16DE070E01B
:103AC00084E192E00E94C508882329F10E949D03A9
:103AD000605A75418F4F9F4F60932C0570932D0551
:103AE00080932E0590932F05E8E2F3E080E092E0CA
:103AF000DF019C011D9221503040E1F78FEF9FEFD5
:103B000090932B0580932A0581E080933305809361
:103B100030051092290580910D02811182C088E044
:103B200090E00E9411234B015C0184E290E00E942E
:103B30000923282F30E040E050E060E070E080E0B2
:103B400090E000E20E94BD22282939294A295B29F8
:103B50002093FF023093000340930103509302032C
:103B6000609303037093040380930503909306030B
:103B700030912C02336030932C022C7F09F043C02B
:103B800025E02093FF02109200032FEF2093010302
:103B900028E7209302031092030325E030E04FEF63
:103BA00058E760E00E94150988E090E00E94112328
:103BB0006B017C0184E290E00E940923282F30E011
:103BC00040E050E060E070E080E090E00E94BD22C4
:103BD000B22FA32FF42FE52F5B0197018601BC299B
:103BE000A12BFE29E32BB093FF02A0930003F093D7
:103BF0000103E093020360930303B09204038093F4
:103C00000503909306030E9473048091FF0280FFD6
:103C100005C060E0869586950E949A0A81E08093AF
:103C20000D0280913A05811102C00E94F92089E3BA
:103C300091E090933D0580933C0598E1C92ED12CED
:103C400028E1A22E22E0B22E34E0832E912C809126
:103C5000590500E112E1853009F486C00E94AA19D5
:103C600009E112E08EE0E82E82E0F82ED701F8019B
:103C700091918D9122E0E332F20709F47FC0981709
:103C8000B9F320903A05712CD7016D907D01F801B0
:103C900031908F01361431F1512C44244394362451
:103CA000832D8421B9F02220A9F059827A820E94C2
:103CB00086119C838B83F1E0FD8391E0842D862126
:103CC00009F490E09E8349815A816B817C818D81CA
:103CD0000E94F9175394440C26E05212E1CFF801E8
:103CE0003197608273943AE07312CECF0E94A7049A
:103CF0007724739448C081E292E0DCCE809159052C
:103D0000843021F10E94D20810923E0530E40FB6B3
:103D1000F894A895C09260000FBE3093600083B7FE
:103D2000817F846083BF83B7816083BF78948895E7
:103D300083B78E7F83BF0FB6F894A89580916000FB
:103D4000886180936000109260000FBE80914F05E3
:103D5000882351F00E94AA19EEE0F2E081918111CE
:103D60007BC0AE16BF06D1F780915905853009F4A6
:103D7000C5CF0E94E30C0E94C30370CF981381CF7C
:103D80000E945E1B712CE0903A05EE2019F00E9413
:103D90000B10E82EF12C80912802F81688F0809103
:103DA0003A05882319F00E940B10E82AEE2009F446
:103DB00043C00E94A7040E9484180E94ED0840C0DE
:103DC00061E08F2D0E94EA03182F60E08F2D0E9482
:103DD000EA03E12FEE0F8E2B0F2D10E0D801AA5D24
:103DE000BD4FEC919E2F9370891721F1EE0FEE0FCE
:103DF000E82BEC93809125028F0DEF70F0E0E15AF3
:103E0000FE4F0D5D1D4F6080D8019C91690E6C9234
:103E1000B3E060E0B61524F0EDEF6E161CF461E03F
:103E20000E942904862D660C990BB4010E94A322DE
:103E3000D8018C93F394AFCF0E9484187110BDCF3A
:103E40000E94C30390912902891709F400CF80933F
:103E500029020E949D03FBCE09BD19BD09B400FED5
:103E6000FDCF8091D8008F7D8093D8008091E000B5
:103E700082608093E0008091E00081FDFCCF0E9491
:103E8000E30C72CFEF92FF920F931F93CF93DF93C8
:103E9000182FEB011092BC0084EA8093BC000E94B2
:103EA00086117C018091BC0087FF27C08091B900FA
:103EB000887F883029F08091B900887F803189F52A
:103EC0001093BB0084E88093BC000E9486118C0193
:103ED0008091BC0087FF1EC02091B900287F90E030
:103EE00080E0283191F081E090E0203411F490E0FE
:103EF00080E091958195910908C0C7010E947711D2
:103F0000C817D90778F68EEF9FEFCDB7DEB7E6E09A
:103F10000C949422C8010E947711C817D907C0F6E3
:103F2000F2CF8FEF9FEFF1CF1092B9008CE080932A
:103F3000B80008950F931F93CF93DF93EB01809305
:103F4000BB0084E88093BC000E9486118C018091A4
:103F5000BC0087FF11C02091B900287F81E090E06C
:103F6000283211F490E080E0919581959109DF91DC
:103F7000CF911F910F910895CF3FDC0741F3C80106
:103F80000E947711C817D90710F78EEF9FEFEFCF78
:103F9000B0E0A0E0EEECFFE10C947122782E5B0122
:103FA0006A0189010E9486114C01C1E0D0E0043110
:103FB000110558F0C5E0D0E00F3F100731F0C801FF
:103FC00064E170E00E945822EB01BE01872D0E943F
:103FD000421F7C0197FF09C00F3F1007B1F3C401D6
:103FE0000E9477110817190780F7E501CA0CDB1C3E
:103FF000CC15DD0511F0F7FE09C084E98093BC0003
:10400000C701CDB7DEB7EDE00C948D22B8018991E0
:104010000E949A1F7C01ECCFB0E0A0E0E2E1F0E268
:104020000C947122782E5B016A0189010E9486112D
:104030004C01C1E0D0E00431110558F0C5E0D0E0FA
:104040000F3F100731F0C80164E170E00E94582270
:10405000EB01BE01872D0E94421F7C0197FF09C022
:104060000F3F1007B1F3C4010E9477110817190719
:1040700080F7E501CA0CDB1CCC15DD0511F0F7FE5D
:1040800009C084E98093BC00C701CDB7DEB7EDE07D
:104090000C948D22FE018491B8010E949A1F7C012C
:1040A0002196EACFB0E0A0E0E8E5F0E20C947022BF
:1040B000682E762E5A0169010E9486114C01C1E0DA
:1040C000D0E00431110558F0C5E0D0E00F3F1007F3
:1040D00031F0C80164E170E00E945822EB01BE019A
:1040E000862D0E94421F7C0197FF1DC00F3F1007C5
:1040F000B1F3C4010E9477110817190780F784E90A
:104100008093BC00C701CDB7DEB7EEE00C948C22E3
:10411000B80189910E949A1F7C01CC16DD0679F3C3
:10412000F7FEF6CFECCFB801872D0E949A1F7C01D5
:10413000E501CA0CDB1CF1CF8EE14A9B02C0815025
:10414000E1F74A9BFECF08955A9880E28A95F1F7ED
:104150005A9A0895FC013BE03A95F1F798E020E087
:1041600080E031E040E14A95F1F7880F4A9B02C0B8
:104170008160232742E04A95F1F7000040E14A952B
:10418000F1F7915079F790E19A95F1F799B132E012
:104190003A95F1F7000040E14A95F1F792FB992733
:1041A00090F992272081920F90830895A1E0B0E0CA
:1041B000ECEDF0E20C94782219828C017C01E60E81
:1041C000F11C0E151F0541F481E09981911180E0E9
:1041D0002196E6E00C9494220E949C20CE01019648
:1041E0000E94AA20F80181938F01EBCF529A5A9A2C
:1041F000089552985A9AEA9AE9E6F0E080818F7C15
:10420000808308956150770B91E001C0990F6A9502
:10421000EAF720E031E0911108C0222391F05A9A88
:1042200080E28A95F1F75A980895492F482339F08A
:104230005A9A232740E24A95F1F79695ECCF5A987F
:10424000F9CF5A98EDCFFF920F931F93CF93DF933F
:10425000EC018C01060F111DC017D10729F4CDB751
:10426000DEB7E5E00C949522F9900E94A42068E066
:104270008F2D0E940221F0CF1F920F920FB60F9246
:1042800011240F931F932F933F934F935F936F933B
:104290007F938F939F93AF93BF93EF93FF93CF93AE
:1042A000DF930F92CDB7DEB719820E949C20CE011A
:1042B00001960E94AA20082F069506950695282F9C
:1042C00022952570902F9570290F922F9370269527
:1042D0002695920F982797708981982B09F05CC0DA
:1042E000083008F059C080E18A95F1F75A9A529A3D
:1042F00082E08A95F1F700C05A9888E0089F800113
:104300001124D801A050BF4F1696ED91FC9117973C
:104310003097A9F0609152017091530114962D913C
:104320003C911597260F371F11968D919C911297EE
:10433000680F791F13964C9113978C910995F8018A
:10434000E050FF4F6381662351F02091520130917C
:10435000530184819581820F931F0E9423210E9423
:10436000A42080E18A95F1F75A9852985A9A80E1F0
:104370008A95F1F7F801E050FF4F6081662351F014
:10438000209152013091530181819281820F931FBC
:104390000E94D6200E949C200F90DF91CF91FF9128
:1043A000EF91BF91AF919F918F917F916F915F91AD
:1043B0004F913F912F911F910F910F900FBE0F9032
:1043C0001F9018950F931F93CF93DF93EC010897DD
:1043D0000CF04CC0F894529A5A9885E08A95F1F7FF
:1043E00000009C2F969595708C2F8570980F892FC3
:1043F00083709695969523E0CC0FDD1F2A95E1F703
:10440000980F8E01092B0E94A42000C068E0802F25
:104410000E94022180E18A95F1F752985A9A4A9BAC
:104420001EC087E090E04A991CC0FE01E050FF4F9B
:1044300063816623F9F02091520130915301848108
:104440009581820F931F0E94D620811113C0529A2A
:104450005A9A7894DF91CF911F910F91089500C0DF
:10446000DECF019729F4529A5A9A789480E0F2CFDD
:1044700000C0D9CF0E949C2080E28A95F1F75A981B
:10448000529A80E18A95F1F7C050DF4F6881662328
:1044900051F0209152013091530189819A81820F0C
:1044A000931F0E9423210E94A420789481E0D2CF00
:1044B000AA1BBB1B51E107C0AA1FBB1FA617B7074A
:1044C00010F0A61BB70B881F991F5A95A9F7809566
:1044D0009095BC01CD0108952F923F924F925F922B
:1044E0006F927F928F929F92AF92BF92CF92DF9204
:1044F000EF92FF920F931F93CF93DF93CDB7DEB769
:10450000CA1BDB0B0FB6F894DEBF0FBECDBF0994FC
:104510002A88398848885F846E847D848C849B8453
:10452000AA84B984C884DF80EE80FD800C811B8161
:10453000AA81B981CE0FD11D0FB6F894DEBF0FBE90
:10454000CDBFED01089597FB072E16F4009407D018
:1045500077FD09D00E94582207FC05D03EF49095C3
:1045600081959F4F0895709561957F4F0895EE0F47
:10457000FF1F0590F491E02D0994002E083090F073
:10458000982F872F762F652F542F432F322F2227D6
:104590000850F4CF220F331F441F551F661F771F8B
:1045A000881F991F0A95B2F7002D089597FD109462
:1045B000002E083098F00850232F342F452F562F07
:1045C000672F782F892F912DF4CF15949795879584
:1045D0007795679557954795379527950A95AAF743
:1045E0001124002D0895FB01DC0104C08D91019080
:1045F000801921F441505040C8F7881B990B089549
:10460000FB01DC0102C001900D9241505040D8F7EF
:104610000895F999FECF92BD81BDF89A992780B58A
:104620000895A6E1B0E044E050E00C945323A8E1E3
:10463000B0E042E050E00C945323DC01A40FB51F1E
:104640004150504048F0CB01840F951F2E910E949D
:104650002E2341505040D0F70895262FF999FECFD0
:1046600092BD81BDF89A019700B4021639F01FBAC5
:1046700020BD0FB6F894FA9AF99A0FBE08950396E2
:10468000272F0E942E230E942D23252F0E942E23A8
:10469000242F0C942E230196272F0E942E230C9456
:1046A0002D23DC01CB01FC01F999FECF06C0F2BD40
:1046B000E1BDF89A319600B40D9241505040B8F7E0
:1046C0000895F894FFCFD00DF80D760FF80D760F02
:1046D0002B0E4C0E760F360F420F2E123212101286
:1046E0002A1236123A123E1299120E13A1126B12AE
:1046F0006F12A5127312A912B5127F12071383123B
:10470000B9128712BD12E5128B12C112EC1291126E
:10471000C712CF127712AD127B12B1129512CB12C3
:10472000DB12F512051365129D121513F513F5131F
:104730002C142C145214521452145214CF14571512
:10474000661566151E1347134E13531358135D1346
:10475000621367136C13711376137B131612161200
:0E476000161216121612161216121612161233
:10476E000000000100000000000000050100000034
:10477E000000000106000000000000060700000017
:10478E000108000000008B04040D00000000000072
:10479E000B110000000000000189035608860388F3
:1047AE0003870300460046460021007F220003F4E3
:1047BE00F501C5016697C63435F6F731333236004A
:1047CE00FF0100010000FFFF0000010001FF0000DB
:0A47DE000100081018181008000070
:00000001FF
